:020000040800F2
:1000000000000220DD2C00086D2C00086F2C000879
:10001000712C0008732C0008752C000800000000EB
:10002000000000000000000000000000772C000825
:10003000792C0008000000007B2C00087D2C0008B3
:100040002D2D00082D2D00082D2D00082D2D000828
:100050002D2D00082D2D00082D2D00082D2D000818
:100060002D2D00082D2D00082D2D00082D2D000808
:100070002D2D00082D2D00082D2D00082D2D0008F8
:10008000812C00082D2D00082D2D00082D2D000895
:100090002D2D00082D2D00082D2D00082D2D0008D8
:1000A0002D2D00082D2D00082D2D00082D2D0008C8
:1000B0002D2D00082D2D00082D2D00082D2D0008B8
:1000C0002D2D00082D2D00082D2D00082D2D0008A8
:1000D0002D2D00082D2D00082D2D00082D2D000898
:1000E0002D2D00082D2D00082D2D00082D2D000888
:1000F0002D2D00082D2D00082D2D00082D2D000878
:100100002D2D00082D2D00082D2D00082D2D000867
:100110002D2D00082D2D00082D2D00082D2D000857
:100120002D2D00082D2D00082D2D00082D2D000847
:100130002D2D00082D2D00082D2D00082D2D000837
:100140002D2D00082D2D00082D2D00082D2D000827
:100150002D2D00082D2D00082D2D00082D2D000817
:100160002D2D00082D2D00082D2D00082D2D000807
:100170002D2D00082D2D00082D2D00080000000059
:080180002D2D00082D2D0008B3
:1001900010B5054C237833B9044B13B10448AFF3C1
:1001A00000800123237010BD7C00002000000000AF
:1001B000D035000808B5034B1BB103490348AFF322
:1001C000008008BD0000000080000020D03500083D
:1001D00001F0FF01102A2BDB10F0070F08D010F8F8
:1001E000013B013A8B422DD010F0070F42B3F6D1FC
:1001F000F0B441EA012141EA014122F007047FF015
:1002000000070023F0E80256083C85EA010586EA6B
:10021000010685FA47F5A3FA87F586FA47F6A5FAA7
:1002200087F68EB9EED1F0BC01F0FF0102F00702B3
:1002300032B110F8013B013A83EA010313B1F8D15E
:100240000020704701387047002D06BF354603383F
:10025000073815F0010F07D1013015F4807F02BF78
:10026000013015F4C03F0130F0BC0138704700BFC9
:1002700053B94AB9002908BF00281CBF4FF0FF310D
:100280004FF0FF3000F07AB9ADF1080C6DE904CE03
:1002900000F006F8DDF804E0DDE9022304B0704761
:1002A0002DE9F0478C460D460446089E002B51D19F
:1002B0008A4217466DD9B2FA82FEBEF1000F0BD00A
:1002C000CEF1200C01FA0EF520FA0CFC02FA0EF722
:1002D0004CEA050C00FA0EF44FEA174A250CBCFB59
:1002E000FAF81FFA87F90AFB18CC45EA0C4508FB17
:1002F00009F3AB420AD9ED1908F1FF3280F02381EE
:10030000AB4240F22081A8F102083D44ED1AA4B2AC
:10031000B5FBFAF00AFB105544EA054400FB09F965
:10032000A14509D9E41900F1FF3380F00A81A14504
:1003300040F2078102383C44A4EB090440EA08403B
:100340000021002E61D024FA0EF400233460736083
:10035000BDE8F0878B4207D9002E54D0002186E8F3
:1003600021000846BDE8F087B3FA83F1002940F088
:100370008E80AB4202D3824200F2FA80841A65EB8F
:1003800003050120AC46002E3FD086E81010BDE8E2
:10039000F08712B90127B7FBF2F7B7FA87FEBEF173
:1003A000000F34D1EB1B3A0C1FFA87FC0121B3FB81
:1003B000F2F8250C02FB183345EA03450CFB08F361
:1003C000AB4207D9ED1908F1FF3002D2AB4200F27F
:1003D000D1808046ED1AA3B2B5FBF2F002FB1055B6
:1003E00043EA05440CFB00FCA44507D9E41900F1DD
:1003F000FF3302D2A44500F2B8801846A4EB0C04E7
:1004000040EA08409DE731463046BDE8F087CEF12E
:10041000200405FA0EF307FA0EF720FA04F83A0C56
:1004200025FA04F448EA0308B4FBF2F14FEA184550
:1004300002FB11441FFA87FC45EA044501FB0CF35B
:10044000AB4200FA0EF409D9ED1901F1FF3080F04A
:100450008A80AB4240F2878002393D44EB1A1FFA92
:1004600088F5B3FBF2F002FB103345EA034500FBCD
:100470000CF3AB4207D9ED1900F1FF386FD2AB4254
:100480006DD902383D44EB1A40EA01418FE7C1F1D2
:10049000200722FA07F88B4005FA01F448EA030323
:1004A00020FA07FE4FEA134CFD404EEA040EB5FB5E
:1004B000FCF94FEA1E440CFB19551FFA83F844EA75
:1004C000054509FB08F4AC4202FA01F200FA01FA10
:1004D00008D9ED1809F1FF3043D2AC4241D9A9F156
:1004E00002091D442D1B1FFA8EFEB5FBFCF00CFB10
:1004F00010554EEA054400FB08F8A04507D9E4185A
:1005000000F1FF3529D2A04527D902381C4440EA22
:100510000940A4EB0804A0FB02894C45C6464D46A1
:1005200015D312D056B1BAEB0E0364EB050404FAEE
:1005300007F7CB401F43CC40376074600021BDE813
:10054000F0871846F8E69046E0E6C245EAD2B8EBF6
:10055000020E69EB03050138E4E72846D7E7404679
:1005600091E78146BEE7014678E702383C4445E71B
:10057000084608E7A8F102083D442BE7704700BF92
:1005800038B50E4A0E4B054618784FF47A73B3FB14
:10059000F0F31068B0FBF3F000F0AAF8044658B985
:1005A0000F2D09D8024629464FF0FF3000F05EF8C3
:1005B000044B20461D6038BD012038BD14000020CA
:1005C000000000200400002008B50B4B1A6842F41C
:1005D00000721A601A6842F480621A601A6842F463
:1005E00080721A60032000F02FF80020FFF7C8FF88
:1005F00002F04CFA002008BD003C0240034A044BC4
:1006000011681B780B441360704700BFB0000020D6
:1006100000000020014B1868704700BFB0000020A8
:1006200038B50446FFF7F6FF631C1CBF054B1B786B
:10063000054618BFE418FFF7EDFF401B8442FAD8C7
:1006400038BD00BF00000020074AD36823F4E063F0
:100650001B041B0C43F0BF63000243F4003300F49F
:10066000E0600343D360704700ED00E0174B30B506
:10067000DC68C4F30224C4F10703251D042B28BF42
:100680000423062D4FF0010505FA03F303F1FF33B0
:100690008CBF033C00241940A14005FA04F4013C3E
:1006A0002240002842EA01024FEA0212ADBF00F1E7
:1006B000604000F00F00064B00F56140B5BFD2B2BC
:1006C000D2B21A5480F8002330BD00BF00ED00E024
:1006D00014ED00E0002808DB4209012300F01F00B0
:1006E00003FA00F0014B43F82200704700E100E0FC
:1006F0000138B0F1807F0AD2064B074A5860F021DA
:1007000082F823100020072298601A6070470120A9
:10071000704700BF10E000E000ED00E00368DAB2CF
:1007200023F47F7323F003031821103AB2FBF1F294
:100730000449032A88BF0433895C8365C165806DE1
:10074000704700BFE835000870B50446FFF762FF48
:100750000546002C71D0002384F83430226802232F
:1007600084F83530136823F00103136021680B68A7
:10077000D8073CD40B68324D6268A0691D40A3685D
:100780001343E26813432269134362691343E26926
:1007900003431343226A1343626A042A43EA0503AC
:1007A00001BF266BE56A35432B430B604B69042A76
:1007B00023F0070343EA02030BD1A26AE56A13435D
:1007C0003DB1F8B9012A2DD001D3022A01D1EA01A5
:1007D0002BD44B612046FFF7A1FFE26D3F239340EE
:1007E000836000200123606584F8353070BDFFF719
:1007F00011FF401B0528B9D920236365032084F825
:10080000350070BDB0F5005F13D1032AE1D801A017
:1008100050F822F02B080008CF0700082B0800082A
:1008200025080008B5F1C07FD3D1402363650120BE
:10083000E5E7022AF9D9032AC8E7012070BD00BF05
:100840003F8010F038B5054620B390F83540E4B24B
:10085000022C1DD003681A6822F0010200241A60DD
:1008600021221C605C609C60DC601C615A61FFF7A7
:1008700055FFEA6DEC633F2393402C646C64AC64D9
:10088000EC642C6583606C6585F8344085F83540F0
:10089000204638BD012038BD70B590F83440012C99
:1008A00032D0012480F8344090F83540866D012C18
:1008B0004FF000054FF0020424D180F83540046861
:1008C0004565256825F48025256063608368402B95
:1008D0000EBFA260A160E260C26D08BFE1603F236D
:1008E0009340B360236843F016032360036C1BB18D
:1008F000236843F008032360236843F00103236067
:10090000002070BD80F83450022070BD70B50446E0
:10091000856DFFF77FFE94F83530022B064606D032
:1009200080236365002384F83430012070BD236880
:100930001A6822F016021A605A6922F080025A617F
:10094000226C0AB9A26C1AB11A6822F008021A6065
:100950001A6822F001021A602368186810F001007A
:1009600009D1E26D3F239340AB60012384F834004A
:1009700084F8353070BDFFF74DFE801B0528EBD99C
:10098000202363650320002384F8343084F8350085
:1009900070BD0000F7B5002301935A4B856D1F68A9
:1009A000C36D2E6808229A40164204460CD0016896
:1009B0000868400708D5086820F004000860AA60AD
:1009C000626D42F00102626501229A40164208D02F
:1009D00021684969090641BFAA60626D42F00202BE
:1009E000626504229A40164208D021680968880787
:1009F00041BFAA60626D42F00402626510229A4013
:100A0000164210D02368196809070CD5AA601A6825
:100A1000500335D51B68190301D4236C00E0A36C87
:100A20000BB120469847E16D20228A40164238D00B
:100A300023681868C60634D5AA6094F83520052ABC
:100A40001A6825D122F016021A605A6922F0800233
:100A50005A61226C0AB9A26C1AB11A6822F0080213
:100A60001A603F238B40AB60002384F834300123AD
:100A700084F83530236D0BB12046984703B0F0BDA4
:100A80001A68D2055EBF1A6822F008021A60C4E72D
:100A9000500328D51B68190332D4636C0BB1204670
:100AA0009847636D002BE9D0636DDA0719D50523EC
:100AB000226884F83530136823F0010313604FF483
:100AC0001653B7FBF3F7019B01339F42019302D307
:100AD0001368DB07F7D4002384F83430012384F84B
:100AE0003530E36CC7E71A6812F4807208D11968D0
:100AF00021F010011960012384F8342084F8353086
:100B0000E36BCBE7140000202DE9F04F85B00B68B4
:100B1000DFF8AC81684ADFF8AC910193002301242F
:100B2000019D9C402540AC4240F0B0804C6824F0D0
:100B3000100C0CF1FF36012E4FEA430E12D88768D5
:100B4000032606FA0EF627EA0607CE6806FA0EF620
:100B50003E4386604768C4F3001627EA05079E40B7
:100B60003E4346600326C76806FA0EF6F64307EAD8
:100B7000060A8F6807FA0EF747EA0A07BCF1020F68
:100B8000C76016D14FEAD30A00EB8A0A03F0070BBD
:100B9000DAF820704FEA8B0B4FF00F0C0CFA0BFCBD
:100BA00027EA0C0C0F6907FA0BF747EA0C07CAF89B
:100BB000207007683E4004F0030707FA0EFE4EEA75
:100BC00006060660E60061D54FF0000BCDF80CB0CC
:100BD000D8F84470394E47F48047C8F84470D8F8C4
:100BE000447007F480470397039F23F0030707F13E
:100BF000804707F59C3703F0030CD7F808A04FEAAD
:100C00008C0C4FF00F0E0EFA0CFEB0422AEA0E0EBC
:100C100043D006F58066B04241D006F58066B0420A
:100C20003FD006F58066B0423DD006F58066B04202
:100C30003BD048453BD006F50066B04239D006F5BA
:100C40008066B04214BF0826072606FA0CF646EA6C
:100C50000E06BE601668EF4314F4803F0CBF3E40A2
:100C60002E431660566814F4003F0CBF3E402E43DE
:100C70005660966814F4801F0CBF3E402E43966069
:100C8000D668A40254BF3E402E43D6600133102BD9
:100C90007FF445AF05B0BDE8F08F5E46D5E701268D
:100CA000D3E70226D1E70326CFE70426CDE70526C2
:100CB000CBE70626C9E700BF003C01400000024028
:100CC00000380240001402402DE9F04F404DDFF89B
:100CD0000891DFF808A1DFF808B10022012303FA28
:100CE00002FC0CEA0104A4455FD122F0030606F1E0
:100CF000804606F59C3602F0030E364BD6F8088087
:100D00004FEA8E0E0F2707FA0EF7984208EA0708F7
:100D100050D003F5806398424ED003F5806398422B
:100D20004CD003F5806398424AD003F58063984223
:100D300048D0484548D0504548D058450CBF0723B7
:100D4000082303FA0EF3984510D12B68E44323409F
:100D50002B606B6823406B60AB682340AB60EB6833
:100D60001C40EC60B36823EA0707B7605600032312
:100D70000468B340DB431C400460D40800EB8404E7
:100D800002F0070E266A4FEA8E0E0F2707FA0EF7BB
:100D900026EA07072762C4681C40C460446824EA46
:100DA0000C0444608468234083600132102A95D18A
:100DB000BDE8F08F0023C4E70123C2E70223C0E7A8
:100DC0000323BEE70423BCE70523BAE70623B8E7FD
:100DD000003C0140000002400014024000180240A4
:100DE000001C02400AB1816170470904FBE70168F9
:100DF0004B6913F480634FF0000210D06FF48063EE
:100E00004B612023026380F83D3080F83E20036C64
:100E100080F83C2043F00403036401207047184627
:100E200070472DE9F843044617469946C1F3074831
:100E30008EB22568B8F1010F0CBF6B69AB6936EA59
:100E4000030314BF0120002008B9BDE8F8836B69D3
:100E50005A0516D52B6843F400732B606FF480633A
:100E60006B6120220023236384F83D2084F83E3008
:100E7000226C42F00402226484F83C300120BDE878
:100E8000F8837B1CD5D0FFF7C5FBA0EB0900874298
:100E900001D3002FCDD100232022236384F83D20ED
:100EA00084F83E30226C42F02002E4E770B504463C
:100EB0000D46164623685B695B0701D5002070BDAF
:100EC0002046FFF794FFA8B96A1CF3D0FFF7A2FBF6
:100ED000801B854201D3002DECD100232022236307
:100EE00084F83D2084F83E30226C84F83C3042F097
:100EF00020022264012070BD70B504460D461646DE
:100F00002068436913F0400301D0002070BD42699E
:100F1000D2060ED56FF0100242612022236384F8BE
:100F20003D2084F83E30226C226484F83C3001205D
:100F300070BDFFF76FFB801BA84201D8002DDFD1E9
:100F400000232022236384F83D2084F83E30226C65
:100F500042F02002E8E72DE9F843089E0446904657
:100F60001F46C1F307498DB22368B9F1010F0CBFC9
:100F70005B699B6935EA03030CBF012300234345EA
:100F800002D00020BDE8F8837B1CEDD0FFF742FBC8
:100F9000801B874201D3002FE6D100232022236348
:100FA00084F83D2084F83E30226C84F83C3042F0D6
:100FB000200222640120BDE8F88370B504460D4686
:100FC000164623685B691B0601D5002070BD2046CC
:100FD000FFF70DFFA8B96A1CF3D0FFF71BFB801BBE
:100FE000854201D3002DECD100232022236384F815
:100FF0003D2084F83E30226C84F83C3042F02002E0
:101000002264012070BD00002DE9FF4115460268F1
:101010000B9E9846136843F4807313600F460A9B37
:10102000009600224FF001110446FFF794FF236859
:1010300038B11B68DB0502D54FF40073236403202D
:101040000AE007F0FE071F610A9A19493346204655
:10105000FFF7E7FE18B1012004B0BDE8F081236876
:1010600003905A6903929B69039332460A99039B42
:101070002046FFF7A2FF40B1236C042B01BF22687A
:10108000136843F400731360E5E7B8F1010F2368B8
:1010900002D1EDB21D61DFE72A0A1A610A993246D0
:1010A0002046FFF78AFF0028E6D12368F1E700BF5A
:1010B000020001002DE9FF41984603680B9D16468A
:1010C0001A6842F480621A601A6842F480721A60E8
:1010D0000F460A9B009500224FF001110446FFF7CE
:1010E0003AFF236848B11B68DB0502D54FF4007353
:1010F0002364032004B0BDE8F081FFB207F0FE02D4
:101100001A612A490A9A2B462046FFF78AFE08B13F
:101110000120EFE7236803905A6903929B690393C8
:101120002A460A99039B2046FFF747FF40B1236CEC
:10113000042B01BF2268136843F400731360E7E7D0
:10114000B8F1010F236825D1F6B21E612A460A992B
:101150002046FFF732FF02460028E8D121680B68DD
:1011600043F480730B6020460A9B00954FF00111F9
:10117000FFF7F1FE23680028B5D147F001071F6192
:101180000A9A0A492B462046FFF74BFE003018BF4B
:101190000120AFE7320A1A610A992A462046FFF772
:1011A0000CFF0028C3D12368CEE700BF0200010076
:1011B00070B5044608B9012070BD90F83D3003F0C9
:1011C000FF021BB980F83C2001F07CFC242384F84A
:1011D0003D3023681A6822F001021A601A6842F44E
:1011E00000421A601A6822F400421A6000F0B0FF50
:1011F0006568414B9D424DD8404B9842DBD92268EF
:101200003F495368B0FBF1F123F03F030B435360B8
:10121000136A23F03F03013119431162D169364B40
:1012200021F44F419D4221F0FF0100F1FF3048D8E9
:101230006D00B0FBF5F00130C0F30B03042B38BF99
:1012400004230B43D3611168206AE36921F0C001D4
:1012500003430B4313609168E068236921F4034161
:10126000034321F0FF010B439360D168A0696369D8
:1012700021F0FF0103430B43D360136843F00103E4
:10128000136000202023206484F83D30206384F81C
:101290003E0070BD1B4B98428DD92268184E536892
:1012A000B0FBF6F623F03F0333435360136A4FF469
:1012B0009671714323F03F034FF47A76B1FBF6F158
:1012C000A9E7A36853B905EB4503B0FBF3F0431C52
:1012D000C3F30B036BB143F40043B2E719236B4331
:1012E000B0FBF3F0431CC3F30B0313B143F44043CF
:1012F000A7E70123A5E700BFA08601007F841E00A9
:1013000040420F00FF083D002DE9F743044699468F
:101310000F4690460C9EFFF77DF994F83D30202B48
:10132000054603D0022003B0BDE8F08300901923E6
:1013300001223B492046FFF70EFE0028F2D194F827
:101340003C30012BEED0012384F83C3023681A682E
:10135000D1075EBF1A6842F001021A601A6822F4CF
:1013600000621A60212384F83D30402384F83E3027
:10137000002323640A9B6362BDF82C306385638D70
:101380002385284BE362019500964B464246394639
:101390002046FFF739FE00282AD00120C3E7FFF7D7
:1013A0000CFE40B1236C042B01BF2268136843F488
:1013B00000731360F1E7636A27681A4612F8011B8D
:1013C00039616262628D218D013A92B262857A69D9
:1013D000481E80B2520720850AD548B15A783A6132
:1013E00002336362638D013B02399BB221856385C1
:1013F000238D2A4631462046002BD0D1FFF756FDDB
:101400000028CFD12268136843F4007313602023AF
:1014100084F83D3084F83C0084F83E0083E700BF48
:10142000020010000000FFFF2DE9F043044687B0E2
:1014300099460D469046109FFFF7ECF894F83D3022
:10144000202B064604D00225284607B0BDE8F083CD
:1014500000901923012277492046FFF77CFD0028E0
:10146000F1D194F83C30012BEDD0012384F83C30CD
:1014700023681A68D0075EBF1A6842F001021A603A
:101480001A6822F400621A60222384F83D30402357
:1014900084F83E30002323640E9B6362BDF83C3029
:1014A0006385638D2385644BE3622946019600972B
:1014B0004B4642462046FFF7FDFD054608B1012593
:1014C000C2E7228D236892B902905A6902929A6902
:1014D0000292029A1A6842F400721A60202384F879
:1014E0003D30002384F83E3084F83C30ACE7012ADC
:1014F0002CD11A6822F480621A6003905A69039210
:101500009A690392039A1A6842F400721A60DFF82B
:101510002C81238D002BE1D0032B6ED8012B2DD1F4
:10152000324639462046FFF7E7FC0028C7D122683B
:10153000636A12691A70636A01336362238D013B27
:101540002385638D013B9BB26385E2E7022A0ED1BE
:101550001A6822F480621A601A6842F400621A6003
:1015600004905A6904929B690493049BCFE7059009
:101570005A6905929B690593059BC8E7022B009663
:101580003B464FF000024146204619D1FFF7E3FCED
:10159000002894D123681A6842F400721A60626AC3
:1015A0001B691370626A531C6362238D013B2385A0
:1015B000638D013B9BB2638523681B695370BAE757
:1015C000FFF7C9FC024600287FF479AF2368196849
:1015D00021F480611960616A1B690B70636A00966F
:1015E00001336362238D013B2385638D013B9BB2F5
:1015F000638541463B462046C8E732463946204689
:10160000FFF77AFC00287FF45AAF2268636A1269F8
:101610001A70626A531C6362238D013B2385638DBC
:10162000013B9BB263852368596949077FF571AF18
:10163000C3E700BF020010000000FFFF040001002C
:10164000F8B50446002841D090F8413003F0FF027D
:101650002BB9424B80F84020436301F06DFA022120
:10166000226884F84110D36923F47B6323F00F03CD
:10167000D361636911628B4231D0E368002BA368A8
:101680000CBF102520250120202B98BF6D0000F0F5
:101690001FFE23696169B3F5007F1BD1E3680A224D
:1016A000B3B1AB00B0FBF3F353430A22B3FBF1F346
:1016B0000533B3FBF2F303F0010212025B08991E3B
:1016C000FD290ED9636C43F0100363640120F8BD5B
:1016D000EB00E7E70A23B0FBF5F04343E5E7002220
:1016E000EDE71343226921686668E568A069DFF8C1
:1016F0007CE013430B62A368CF6946EA030242F41D
:1017000000622A43024307EA0E073A43CA61226A8B
:10171000012A1DD1124A6263124F134AB94218BFFF
:101720004FF040222B43D16901EA0E01D161022121
:101730001162D76943F40063034336F4007143EA4E
:1017400007030CBF4FF4807100219BB20B43D361A0
:1017500000200123606484F84130F8BD11190008AD
:10176000351A0008003800400034004040F0FFFF08
:1017700010B5044680B10268022380F84130D36975
:1017800023F48063D36101F04FFA0020606484F891
:10179000410084F8400010BD012010BD38B504465A
:1017A00000294FD0002A4DD090F84030012B0AD0AC
:1017B000012380F8403090F84130012B4FF00003B6
:1017C00003D080F84030022038BD0320256884F81B
:1017D00041006364EB69616203F00703834201D057
:1017E000052B1CD153009BB223856385A06B164B40
:1017F0000364164BC363164BC364238D05F10C02BF
:101800009BB2FFF749F868B1636C012043F008030D
:10181000636484F84100002384F8403038BD228599
:101820006285E3E72368DA6951055EBFDA6942F44D
:101830008062DA615A6892075EBF5A6842F002021B
:101840005A60E8E7012038BDE1180008EB180008ED
:101850000B1A000838B503685A6822F002025A6071
:101860005A680446806B22F001025A6050BB002582
:10187000E06B38B1FFF74AF820B1636C43F008031E
:101880006364012594F841302268052B11D1124977
:10189000124B8A4218BF4FF04023596821F00201D1
:1018A0005960596821F001015960D96921F48061BA
:1018B000D961D36923F48063D361012384F8413073
:1018C000284638BDFFF722F80028D0D0636C43F0DB
:1018D000080363640125CBE7003800400034004072
:1018E00008B5806B00F096FF08BDC16908B5836B31
:1018F00041B91868426822F002024260012259850B
:1019000083F84120184600F07BFF08BD7047704700
:101910001FB503689A68019290F84120042A044692
:1019200036D1019AD10717D55A68520614D5C26A22
:10193000D96822F8021BC262428E013A92B24286F4
:10194000428E92B242B95A6822F060025A60012374
:1019500080F84130FFF7DAFF019B590618D523685C
:101960005A68920614D55A6822F060025A60002222
:101970000292DA6802929B680293029B012384F828
:101980004130636C43F0020363642046FFF7BFFFFE
:1019900094F84130032B36D1019B9B0719D522685F
:1019A0005368180615D5636A33F8021BD160636269
:1019B000638D013B9BB26385638D9BB24BB95368CA
:1019C00023F0A0035360012384F84130204600F047
:1019D00017FF019B190716D523685A68920612D57E
:1019E0005A6822F0A0025A60002203929B68039377
:1019F000039B012384F84130636C43F00403636468
:101A00002046FFF784FF04B010BD806B026808B564
:101A1000536823F003035360002343854386012367
:101A200080F84130436C43F008034364FFF76FFFD5
:101A300008BD704710B502688B49936886B00446AC
:101A400000938A4B8A4218BF4FF040239968019156
:101A50005168029159680391416831F4007140F076
:101A60009080009B99071AD5029B1B0617D5436AE5
:101A7000991C1B884162D360438D013B9BB2438517
:101A8000438D9BB25BB9536823F0A0035360438E30
:101A90009BB223B9012380F84130FFF7CAFF019BB5
:101AA000D80722D5039B59061FD5E26A20686E49E4
:101AB000931CE3626D4B884218BF4FF04023D968F6
:101AC0001180628E013A92B26286628E92B262B9DF
:101AD0005A6822F060025A60638D9BB22BB90123D1
:101AE00084F841302046FFF7A4FF019B5A0622D517
:101AF000039B9B061FD523685B495C4A8B4218BF3A
:101B00004FF040222046516821F0600151605A6830
:101B100022F0A0025A6000220492DA6804929B68C4
:101B20000493049B012384F84130636C43F0020367
:101B30006364FFF7ECFE009B180720D5029B990613
:101B40001DD5236848495A6822F0A0025A60474AC6
:101B50008B4218BF4FF04022516821F06001516064
:101B6000002205929B680593059B012384F8413070
:101B7000636C43F0040363642046FFF7C8FE06B0BD
:101B800010BD019A92071AD5039A110617D5426A19
:101B9000911C12884162DA60428D013A92B242850C
:101BA000428D92B25AB95A6822F0A0025A60438E0E
:101BB0009BB223B9012380F84130FFF73AFF009B25
:101BC000DA071CD5029B5B0619D5E36A9A1CE26210
:101BD0002268D1681980638E013B9BB26386638E55
:101BE0009BB263B9536823F060035360638D9BB26B
:101BF0002BB9012384F841302046FFF71AFF009BE0
:101C000058061BD5029B990618D5226816495368B9
:101C100023F060035360154B8A4218BF4FF04023F6
:101C200020465A6822F0A0025A60012384F841300D
:101C3000636C43F002036364FFF769FE019B1A07BC
:101C40009DD5039B9B069AD522680749074B8A427C
:101C500018BF4FF04023596821F0A0015960536824
:101C600023F06003536080E70038004000340040F8
:101C70002DE9F341044608B901203FE00368DD0780
:101C800010D4236898075AD423681A0700F19C805F
:101C900023685B0700F1BA80A069002840F01B812F
:101CA00000202BE0A44B9A6802F00C02042A07D013
:101CB0009A6802F00C02082A0AD15B68590207D51B
:101CC0009D4B1B689A03DCD56368002BD9D1D3E701
:101CD0006368994DB3F5803F13D12B6843F480338B
:101CE0002B60FEF797FC944D06462B689B03C8D4E7
:101CF000FEF790FC801B6428F7D9032002B0BDE8F2
:101D0000F081B3F5A02F04D12B6843F480232B601E
:101D1000E3E72A6822F480322A602A6822F48022CB
:101D20002A60002BDDD1FEF775FC06462B689F0369
:101D3000A7D5FEF76FFC801B6428F7D9DDE77E4B43
:101D40009A6812F00C0F07D09A6802F00C02082A69
:101D500011D15B685E020ED4774B1A68950702D5E5
:101D6000E268012A88D11A68216922F0F80242EA61
:101D7000C1021A6088E7E268704BB2B101221A60B2
:101D8000FEF748FC6C4D06462B68980707D52B6874
:101D9000226923F0F80343EAC2032B6074E7FEF7DD
:101DA00039FC801B0228EFD9A7E71A60FEF732FC46
:101DB000614D06462B6899077FF566AFFEF72AFC52
:101DC000801B0228F6D998E762695D4B7AB101223F
:101DD0001A60FEF71FFC584D06466B6F9F073FF5D4
:101DE00057AFFEF717FC801B0228F6D985E71A606B
:101DF000FEF710FC504D06466B6F98077FF548AF15
:101E0000FEF708FC801B0228F6D976E74A4B1A6CCD
:101E100012F0805228D101921A6C42F080521A645A
:101E20001B6C03F080530193019B0126454D2B68E9
:101E3000D9051BD5A368404D012B27D12B6F43F04B
:101E400001032B67FEF7E6FB3B4D074641F288385E
:101E50002B6F9B0739D5002E3FF41EAF364A136C0B
:101E600023F08053136417E70026DFE72B6843F461
:101E700080732B60FEF7CEFB07462B68DA05D9D4BA
:101E8000FEF7C8FBC01B0228F7D936E7052B04D1A3
:101E90002B6F43F004032B67D0E72A6F22F0010277
:101EA0002A672A6F22F004022A67002BCAD1FEF7A4
:101EB000B1FB41F2883807462B6F9807CBD5FEF768
:101EC000A9FBC01B4045F7D917E7FEF7A3FBC01BD2
:101ED0004045BDD911E7184DAB6803F00C03082B42
:101EE00047D0194E00230228336035D1FEF792FB0C
:101EF00007462B68990129D4226AE3691343626A71
:101F000043EA8213E26A43EA0263A26A0A4C520875
:101F1000013A43EA02436B6001233360FEF77AFB28
:101F2000054623689A013FF5BBAEFEF773FB401BE5
:101F30000228F6D9E1E600BF00380240000047421F
:101F4000800E47420070004060004742FEF762FB8F
:101F5000C01B0228CDD9D0E6FEF75CFB04462B68F7
:101F60009B017FF59DAEFEF755FB001B0228F6D9BD
:101F7000C3E601283FF4C2AEA868E36900F480021A
:101F80009A427FF479AE226A00F03F0393427FF4D5
:101F900073AE626A47F6C073034093427FF46CAE3F
:101FA000A26A00F4403393427FF466AEE36A00F025
:101FB0007060C01A18BF0120A0E600BF134908B521
:101FC0008B6803F00C03042B03D0082B03D01048BC
:101FD00008BD104808BD4A684B68496813F480037F
:101FE00014BF0C480A48C1F3881118BF002302F03F
:101FF0003F02A1FB0001FEF73BF9044B5B68C3F312
:10200000014301335B00B0FBF3F008BD0038024030
:102010000024F40000127A002DE9F0410D46044638
:1020200010B90120BDE8F081444B1A6802F00F029C
:102030008A4229D321688F072ED4C80741D43F4B49
:102040001A6802F00F02954267D3226851076DD4D7
:10205000130707D53A4A2169936823F4604343EA9A
:10206000C1039360FFF7AAFF354B364A9B68C3F361
:102070000313D35CD840344B1860344B1868FEF718
:102080007FFA0020BDE8F081CAB21A701B6803F025
:102090000F039942C5D1CDE7294B11F0040F1EBFA4
:1020A0009A6842F4E0529A600E0742BF9A6842F47E
:1020B00060429A609A68A06822F0F00202439A6037
:1020C000BBE762681E4B012A1DD11B6813F4003F59
:1020D000A7D01B4EB36823F003031343B360FEF78E
:1020E00099FA41F288380746B368626803F00C0336
:1020F000B3EB820FA3D0FEF78DFAC01B4045F3D996
:102100000320BDE8F081911E01291B6802D813F05D
:10211000007FDDE713F0020FDAE7EAB21A701B68FE
:1021200003F00F039D427FF47CAF8EE70449E06823
:102130008B6823F4E05303438B6089E7003C024043
:10214000003802408C4908081400002004000020D8
:10215000044B054A9B68C3F38223D35C034A10688F
:10216000D8407047003802409C49080814000020FD
:10217000036813F0050FF7B5054605D1286810F080
:10218000020028D103B0F0BD414C424E0023236031
:10219000FEF740FA074633681B0115D4AB686A683E
:1021A0001B0743EA8213C6F8843001232360FEF73D
:1021B00031FA384C064623681801DFD4FEF72AFAB4
:1021C000801B0228F7D904E0FEF724FAC01B02287E
:1021D000E1D90320D6E7002301932E4B2E4C1A6C35
:1021E00042F080521A641B6C03F080530193019BF0
:1021F000236843F480732360FEF70CFA06462368D5
:10220000D9051BD5234C236F13F440731CD1EB6805
:1022100003F44072B2F5407F1E4A34D1916823F036
:10222000704021F4F81120F4407001439160116F67
:10223000C3F30B030B4313670020A3E7FEF7EAF990
:10224000801B0228DBD9C4E7EA6802F4407293429B
:10225000DDD0236F114A0121116023F44073002166
:1022600011602367236FDA07D1D5FEF7D3F941F266
:1022700088370646236F9B07C9D4FEF7CBF9801B2E
:10228000B842F7D9A5E7916821F4F811CEE700BF6D
:10229000680047420038024000700040400E47424C
:1022A0000A4A03230360D2F88430C3F388134360DF
:1022B000D2F88430C3F3027383609368126F03F41F
:1022C000F81302F440721343C360704700380240B1
:1022D000012820D1114B9A6812F4000204D0012A7F
:1022E0000F4818BF002070475A680C4958685302BD
:1022F000D1F884204CBF0B4B0B4B00F03F00B3FBDD
:10230000F0F3D1F88400C2F388125343C0F3027093
:10231000B3FBF0F070470020704700BF0038024068
:102320000080BB0000127A000024F40001224FF468
:1023300080410148FEF756BD000C024010B586B042
:1023400006AB012403F8012D4FF4805202928DE870
:1023500018000A46234601460448FEF7D5FF10B18F
:10236000FFF7E4FF204606B010BD00BF1C030020AD
:1023700010B586B006AA002402F8014D4FF47A7316
:10238000029301238DE80C0001461A460548FFF729
:102390004BF828B99DF8170000F0F80006B010BD02
:1023A0002046FBE71C030020642970B5C6B214D890
:1023B000C1EB0121642491FBF4F4E4B21934E4B2DA
:1023C000224620213046FFF7B9FF2246054621214B
:1023D0003046FFF7B3FF284470BDE6290CD97D22B3
:1023E00020213046FFF7AAFF7D22044621213046F6
:1023F000FFF7A4FF204470BD6424DFE72DE9F74F09
:10240000824689464E481021144600221E46FEF799
:10241000E9FC0520FEF704F9012210214848FEF7E7
:10242000E1FC5FFA8AF70520FEF7FAF801220221A3
:102430003846FFF783FF09F1FF320546414B032A77
:102440007CD8DFE802F00277797BFA221A701A78DA
:1024500004213846FFF772FF81220190052138469A
:10246000FFF76CFF0422834606213846FFF766FF1C
:10247000214680465046FFF797FF019B2C181C44CD
:102480005C44B9F1020FA04412D006220F21384655
:10249000FFF754FF0022044624213846FFF74EFF81
:1024A0000022044425213846FFF748FFA044804419
:1024B00000220A213846FFF741FF042204460E217C
:1024C0003846FFF73BFF0022044427213846FFF738
:1024D00035FF444404440F221F213846FFF72EFFE6
:1024E0000A2204441A213846FFF728FF0A2204442E
:1024F0001B213846FFF722FF0A2204441B213846DD
:10250000FFF71CFF104B114DDA692B6022F480623B
:10251000DA610444002328466E61AB60FFF728F9B6
:102520002846FFF78DF808B1FFF700FF204603B0FB
:10253000BDE8F08FAF2289E7AA2287E7052285E769
:10254000000C024098000020003C004034040020B1
:10255000F0B50646244885B00F4615460023FF24F3
:1025600050F82310DAB20133A94208BF1446082BF1
:10257000F6D16846FFF794FE012314F0070F00938D
:1025800001BF1A4B53F824300193194B16BF4FF477
:10259000817353F824300193684618BF03230293D4
:1025A000FFF7E6FD002210211248FEF71BFC052074
:1025B000FEF736F8012210210E48FEF713FC052025
:1025C000FEF72EF89420FFF7D3FE00F0F800E02885
:1025D00008D12B463A4631469420FFF70FFF0020E2
:1025E00005B0F0BD0120FBE7FC3500081C360008F3
:1025F0003C360008000C024008B5012916BF044B08
:10260000FF221A780421C0B2FFF798FE08BD00BF70
:1026100098000020F8B50E4D2B78012B074615D1F8
:10262000C6B206220E213046FFF788FE002104467E
:102630003846FFF7E1FF9E22074602213046FFF7AA
:102640007DFE002320442B703844F8BD0020F8BDE7
:102650001000002038B5C4B2FF2204212046FFF745
:102660006DFE9F22054602212046FFF767FE024BC2
:1026700001221A70284438BD1000002008B501203E
:10268000FDF7CEFF0548FFF7E5F80120FDF7C8FF8D
:102690009420BDE80840FFF7DDBF00BF34040020F0
:1026A000304B3149314800222DE9F0411A60304B5E
:1026B000304C1B685D68304B4FF400721D6000F0B9
:1026C00061FBA5F50B7594202560FFF7A3FF90B182
:1026D000FFF72CFE294FDFF8C0804FF40B752668FA
:1026E00086B901224FF480512548FEF77BFBBDE8F7
:1026F000F041FFF7C3BF4FF480721C492148FFF738
:102700004DF8E7E73B78012B0DD108EB05014FF4BD
:102710008072164800F036FBA6F5807600233B70E9
:10272000266005F580753B78022B0ED108EB05017C
:102730004FF48072144800F025FB2368A3F58073E2
:10274000236000233B7005F580752368002BC6DAF3
:102750000E4A0F490F48002313601A46236000F009
:1027600025FBBCE7CC00002088360008D000002004
:10277000A0000020080000200C000020990000208C
:10278000000C024034040020D0010020B4000020DE
:10279000F0350008B80000205C36000807B5084B8B
:1027A000186046238DF8073002469DF80710042074
:1027B000FFF7CEFE08B1FFF7B9FD03B05DF804FBEB
:1027C000D4020020014B01221A70704799000020AA
:1027D000074B02221A70074B1B782BB94FF48072FB
:1027E00005490648FEF7DABF00219420FFF7DCBD5B
:1027F0009900002010000020D000002034040020A8
:102800000268034B9A4201D1FFF7E2BF704700BF55
:10281000003C00400268034B9A4201D1FFF7D2BF4F
:10282000704700BF003C004010B50F4C2378DBB26E
:10283000012B06D002D3032B0BD010BD0123237034
:1028400010BD0A4A0A4B13609869FFF7A7FF0323DC
:10285000F5E7064B074A1B68596898691160FFF74E
:102860001FFF0023EBE700BFD8020020A0000020DC
:102870005C3600089C00002070B5302298B00DEB4B
:102880000200002100F089FA1422002107A800F0BC
:1028900084FA0021102203A800F07FFA0025204BC3
:1028A00001951A6C42F080521A641B6C03F080533D
:1028B0000193019B1B4B02951A6842F480421A60F7
:1028C0001B6803F480430293029B4FF480330D9303
:1028D0004FF48003139304231493A82302240126A6
:1028E00015930CA8072317930C9612941694FFF7D0
:1028F000BFF90F2307934FF4A0530A9305214FF418
:10290000805307A80B9308940995FFF785FBC02314
:1029100003A8039604930594FFF72AFC18B070BD32
:10292000003802400070004080B58AB0FDF74CFED0
:10293000FFF7A2FF142200244B4D00210DEB0200F3
:1029400000F02BFA00942B6B484843F080032B6374
:102950002B6B03F080030093009B01942B6B43F0DF
:1029600004032B632B6B03F004030193019B02947C
:102970002B6B43F001032B632B6B03F001030293DA
:10298000029B03942B6B43F008032B632B6B03F028
:1029900008030393039B04942B6B43F002032B6304
:1029A0002B6B03F00203049322460121049BFEF7E4
:1029B00019FA22464FF210012D48FEF713FA0126AC
:1029C00005A92A480596069607940894FEF79CF8F0
:1029D0004FF4704305A926480593102706960794DF
:1029E0000894FEF791F8022305A92148079305975B
:1029F00006960896FEF788F805942B6B43F40013AF
:102A00002B632B6B03F400132246214605933846B3
:102A1000059BFDF72BFE3846FDF75CFE1548164A70
:102A2000164B846080E80C006623C3604FF480433B
:102A3000036144618461C4610462FEF7B9FB10481C
:102A4000104B03604FF40073436003614BF6803317
:102A50008460C46043618461C4610662FEF7F0FD76
:102A6000FFF7E2FEFCE700BF00380240000802402A
:102A7000000C02401C03002000540040A08601000E
:102A800034040020003C00407047000082B00C4B32
:102A9000002100915A6C42F480425A645A6C02F44C
:102AA00080420092009A01911A6C42F080521A649E
:102AB0001B6C03F080530193019B02B0704700BF71
:102AC0000038024030B5044689B01422002103A822
:102AD00000F063F92268154B9A4224D1144C154832
:102AE00000250195236B43F002032363236B03F05E
:102AF00002030193019B4FF4107303931223049379
:102B0000012305930323069303A904230793FDF7E9
:102B1000FBFF0295236C43F400132364236C03F43E
:102B200000130293029B09B030BD00BF0054004067
:102B30000038024000040240F0B5064689B0142275
:102B4000002103A800F029F93268324B9A425FD184
:102B5000002503F5FE3300951A6C2F4842F400421D
:102B60001A641A6C02F400420092009A01951A6BE2
:102B700042F001021A631A6B02F001020192019AFB
:102B800002951A6B42F004021A631B6B03F00403F4
:102B9000029302240627029B0494102303A90393A3
:102BA0000797FDF7B1FF4FF4A45303A91B48039304
:102BB0000494079705954FF400670695FDF7A4FF69
:102BC00005231648049403A9154C0793039705950C
:102BD0000695FDF799FF134BE56084E82800402334
:102BE000A3604FF480632361042363620323A36221
:102BF00020464FF080736761A561E5612562E3625D
:102C00002563FDF7A1FD08B1FFF73EFFB463A6639E
:102C100009B0F0BD003C0040000002400008024046
:102C2000700300208860024002680C4B9A4210B585
:102C3000044612D10A4A0B48136C23F40043136470
:102C40001021FEF741F808484FF4E451FEF73CF834
:102C5000A06BBDE81040FDF7F5BD10BD003C004085
:102C60000038024000000240000802407047FEE7C2
:102C7000FEE7FEE7FEE7704770477047FDF7BEBC12
:102C80000148FDF787BE00BF7003002008B50A4B5E
:102C90001968024609B90949196018686946024469
:102CA0008A4206D900F044F80C2303604FF0FF304D
:102CB00008BD1A6008BD00BFA400002080040020E9
:102CC000054BD3F8882042F47002C3F888204FF0F7
:102CD00000629A60704700BF00ED00E0DFF834D07A
:102CE000002103E00C4B5B58435004310B480C4B64
:102CF00042189A42F6D30B4A02E0002342F8043B02
:102D0000094B9A42F9D3FFF7DBFF00F017F8FFF702
:102D10000BFE704700000220E84908080000002070
:102D20007C0000207C00002080040020FEE70000E2
:102D3000014B1868704700BF1800002070B50D4E99
:102D40000D4CA41BA4100025A54209D10B4E0C4C20
:102D500000F03EFCA41BA4100025A54205D170BDC7
:102D600056F8253098470135EEE756F82530984754
:102D70000135F2E7E0490808E0490808E049080899
:102D8000E449080810B5431E0A44914200D110BD21
:102D900011F8014B03F8014FF7E702440346934251
:102DA00000D1704703F8011BF9E700000EB400B52D
:102DB0009CB04FF402711DABADF814100290069058
:102DC0006FF000410A48049107914FF6FF7153F8E4
:102DD000042BADF816100068019302A900F066F804
:102DE000029B00221A701CB05DF804EB03B0704720
:102DF000180000202DE9F0478E689E4282460C465E
:102E00009146984635D88A8912F4906F31D025685A
:102E100009696F1A6569022305EB450595FBF3F512
:102E200008F101033B449D4238BF1D46530531D58F
:102E3000294600F02DFB064650B90C23CAF8003095
:102E4000A38943F04003A3814FF0FF30BDE8F08732
:102E50003A462169FFF796FFA38923F4906343F074
:102E60008003A381266165613E44ED1B2660A56059
:102E70004646464528BF464632464946206800F049
:102E80009FFAA3689B1BA36023681E442660002052
:102E9000BDE8F0872A4600F059FB06460028E1D13C
:102EA0002169504600F0A6FAC7E700002DE9F04F6F
:102EB0009DB0804603938B891C060D4616460FD5A0
:102EC0000B696BB9402100F0E3FA2860286128B94A
:102ED0000C23C8F800304FF0FF30C5E040236B6191
:102EE0000023099320238DF8293030238DF82A30D0
:102EF0004FF0010B37463C4614F8013B002B3CD108
:102F0000B7EB060A0BD05346324629464046FFF738
:102F100071FF013000F0A380099B534409933B7873
:102F2000002B00F09C8000234FF0FF3204930793A6
:102F3000059206938DF853301A9305222178504854
:102F4000FDF746F9671C049BD8B9D90644BF202277
:102F50008DF853201A0744BF2B228DF85320227876
:102F60002A2A16D0079A00210A20274601343B78E6
:102F7000303B092B51D9C9B111E0252BC0D02746D0
:102F8000B9E73F4A801A0BFA00F0184304903C4618
:102F9000D3E7039A111D12680391002A01DB0792FF
:102FA00004E0524243F00203079204933B782E2B35
:102FB0000ED17B782A2B07F1010132D1039B1A1D18
:102FC0001B680392002BB8BF4FF0FF330237059305
:102FD0002C4C397803222046FDF7FAF838B140230B
:102FE000001B03FA00F0049B034304930137397874
:102FF00025488DF8281006227E1CFDF7E9F80028E8
:1030000035D0224BFBB9039B073323F0070308336A
:103010000393099B4B4409936CE700FB02320121A7
:10302000A3E70023059318460A240F4601313A7896
:10303000303A092A03D9002BCAD00590C8E704FB0F
:1030400000200123F1E703AB00932A46104B04A9AB
:103050004046AFF30080B0F1FF3F8146D9D1AB8944
:103060005B063FF538AF09981DB0BDE8F08F03ABA4
:1030700000932A46064B04A9404600F081F8EAE78F
:10308000A4490808AA490808AE4908080000000039
:10309000F52D00082DE9F04791461F468A680B6917
:1030A000DDF820809342B8BF1346C9F8003091F88C
:1030B000432006460C4612B10133C9F8003023689C
:1030C000990642BFD9F800300233C9F800302568AC
:1030D00015F0060507D104F1190AE368D9F80020B4
:1030E0009B1A9D4229DB94F843302268003318BFB5
:1030F000012392062ED404F1430239463046C047DC
:10310000013021D02368E568D9F8002003F00603D8
:10311000042B08BFAD1AA36822690CBF25EAE57528
:1031200000259342C4BF9B1AED184FF000091A34D2
:103130004D451BD10020BDE8F0870123524639469A
:103140003046C047013003D14FF0FF30BDE8F08773
:103150000135C2E7E1185A1C302081F843002244AF
:1031600094F8451082F843100233C4E70123224645
:1031700039463046C0470130E6D009F10109D7E7AA
:103180002DE9F04317460A7E85B06E2A984606461A
:103190000C460C9B01F1430E00F0BC801AD8632A48
:1031A0002ED00AD8002A00F0C880582A00F08A8061
:1031B00004F1420584F842202AE0642A01D0692AF9
:1031C000F6D121681A6811F0800F23D0111D196003
:1031D000136827E0732A00F0B48008D86F2A2AD039
:1031E000702AE5D10A6842F020020A6003E0752ADD
:1031F00021D0782ADCD1782284F845206E4964E019
:103200001A6801F14205111D1960136884F84230F3
:103210000123A3E011F0400F02F104011960D7D09F
:10322000B2F90030002B03DA2D225B4284F84320F0
:1032300062490A2217E02068196810F0800F03D055
:10324000081D18600B6806E010F0400F01F1040043
:103250001860F7D00B8859496F2A14BF0A22082238
:10326000002084F843006568A560002DC0F29C80B2
:10327000206820F004002060002B3FD1002D40F09A
:1032800095807546082A0BD12368DA0708D523698B
:1032900062689A42DEBF302305F8013C05F1FF3534
:1032A000AEEB05032361CDF800803B4603AA21461F
:1032B0003046FFF7EFFE013055D14FF0FF3005B03B
:1032C000BDE8F08381F845203C492268186812F077
:1032D000800F00F104051D6001D0036802E055066F
:1032E000FBD50388D00744BF42F0200222601BB9FF
:1032F000226822F0200222601022B1E77546B3FB5B
:10330000F2F002FB1033CB5C05F8013D03460028C8
:10331000F5D1B7E708681A68496910F0800F04D042
:10332000101D18601368196007E010F0400F02F1DB
:10333000040018601368F6D01980002323617546D5
:10334000B1E71A68111D19601568626800212846E6
:10335000FCF73EFF08B1401B6060636823610023F7
:1033600084F843309FE723692A4639463046C047F0
:103370000130A2D023689B0707D5002504F1190965
:10338000E368039A9B1A9D4205DBE068039B984221
:10339000B8BF184693E701234A4639463046C0472E
:1033A00001308AD00135EBE7002BA7D10B7884F8E8
:1033B000423004F1420565E7C6490808B5490808E6
:1033C000884210B501EB020303D8421E99420CD18A
:1033D00010BD9842F9D28118D21AD34200D110BD43
:1033E00013F8014D01F8014DF7E711F8014B02F810
:1033F000014FEBE738B50546002945D051F8043CAC
:103400000C1F002BB8BFE41800F0D6F81F4A136851
:10341000104633B9636014602846BDE8384000F0B8
:10342000CCB8A3420CD921686218934204BF1A6831
:103430005B68636004BF521822600460ECE71346C7
:103440005A680AB1A242FAD919685818A0420BD199
:1034500020680144581882421960DDD11068526812
:103460005A6001441960D7E702D90C232B60D3E7D7
:10347000206821188A4204BF11685268626004BF44
:10348000091821605C60C7E738BD00BFA8000020B4
:1034900070B5CD1C25F0030508350C2D38BF0C2563
:1034A000002D064601DBA94203D90C23336000201E
:1034B00070BD00F081F8234A1468214691B9224C6E
:1034C00023681BB9304600F067F820602946304673
:1034D00000F062F8431C26D10C233360304600F024
:1034E0006CF8E4E70B685B1B1AD40B2B0FD90B604D
:1034F000CD50CC18304600F060F804F10B00231DCD
:1035000020F00700C31A1BD05A42E25070BD8C4213
:103510000DBF63684B686360136018BF0C46E9E732
:103520000C464968CAE7C41C24F00304A04205D035
:10353000211A304600F030F80130CDD02560D9E7AF
:1035400070BD00BFA8000020AC000020F8B5074601
:1035500014460E4621B91146BDE8F840FFF798BF62
:1035600022B9FFF747FF25462846F8BD00F026F8A8
:1035700084420FD921463846FFF78AFF05460028C6
:10358000F2D031462246FFF7FDFB31463846FFF7C1
:1035900031FFE9E73546E7E738B5064C0023054635
:1035A00008462360FFF772FB431C02D1236803B176
:1035B0002B6038BD7C0400207047704751F8040C24
:1035C0000028A0F10400BCBF0B58C01870470000D1
:1035D000F8B500BFF8BC08BC9E467047F8B500BF00
:0835E000F8BC08BC9E467047D0
:1035E800000610160006101625203032643A2520F1
:1035F80030326400401F0000112B0000803E0000A4
:1036080022560000007D000044AC000080BB000092
:103618000077010000010000AD010000D5000000A6
:10362800AD010000AA0100000F0100000201000026
:10363800580100000500000004000000040000001C
:103648000400000004000000060000000300000061
:1036580001000000524946463013080057415645BC
:10366800666D742010000000010002002256000060
:1036780088580100040010006461746100FE7E0136
:103688000000000000000000000000000000000032
:103698000000000000000000000000000000000022
:1036A8000000000000000000000000000000000012
:1036B8000000000000000000000000000000000002
:106348000000000000000100000001000000010042
:106358000000000000000000000000000000000035
:106368000000010001000100010001000000000020
:106378000000000000000000000000000000000015
:106388000000000000000000000000000000000005
:1063980000000000000000000000000000000000F5
:1063A80000000000000000000000000000000000E5
:1063B80000000000000000000000000000000000D5
:1063C80000000000000000000000000000000000C5
:1063D80000000000000000000000000000000000B5
:1063E80000000000000000000000000000000000A5
:1063F8000000000000000000000000000000000095
:106408000000000000000000000000000000000084
:106418000000000000000000000000000000000074
:106428000000000000000000000000000000010063
:106438000000000000000000000000000000000054
:106448000000000000000000000000000000000044
:106458000000000000000000000000000000000034
:106468000000000000000000000000000000000024
:106478000000000000000000000000000000000014
:106488000000000000000000000000000000000004
:1064980000000000000000000000000000000000F4
:1064A80000000000000000000000000000000000E4
:1064B80000000000000000000000000000000000D4
:1064C80000000000010000000100000000000000C2
:1064D80000000000000000000000000000000000B4
:1064E80000000000000000000000000000000000A4
:1064F8000000000000000000000000000000000094
:106508000000000000000000000000000000000083
:106518000000000000000000000000000000000073
:106528000000000000000000000000000000000063
:106538000000000000000000000000000000000053
:106548000000000000000000000000000000000043
:106558000000000000000000000000000000000033
:106568000000000000000000000000000000000023
:106578000000010000000100000001000000000010
:1065880000000000FFFF0000FFFFFFFFFFFFFFFF0D
:1065980000000000000000000100000001000000F1
:1065A80000000000000000000000000000000000E3
:1065B80000000000010000000100010001000100CE
:1065C80000000000000000000000000000000000C3
:1065D80000000100000000000000000000000000B2
:1065E80000000000000000000000000000000100A2
:1065F8000000010000000000000000000000000092
:106608000000000000000000000000000100010080
:10661800010001000100010001000000010000006C
:106628000000000000000000010000000100000060
:106638000100010001000100010000000000FFFF4F
:1066480000000000FFFFFFFF000000000000000046
:10665800010001000000000000000000FFFF000032
:10666800FFFFFFFF00000000FFFF0000FFFF00002A
:10667800FFFF000000000000FFFFFFFFFFFF00001A
:10668800FFFF000000000000000000000000000004
:1066980000000100010001000100010000000000ED
:1066A800010001000000000000000000FFFF0000E2
:1066B800FFFF0000FEFF0000FEFF0000FEFF0000DD
:1066C800FEFF0000FEFF0000FFFF0100FFFF0000CB
:1066D800000001000000010000000100FFFF0000B1
:1066E800000001000000000001000100010001009D
:1066F80000000000FFFF0000FDFFFEFFFEFFFFFFA0
:10670800FDFFFEFFFEFFFFFFFCFFFDFFFEFF000099
:10671800FDFFFEFFFEFFFFFFFFFF0000010002007C
:1067280000000100FFFF000000000100FFFF000063
:1067380000000100FFFF010001000200FEFFFFFF53
:1067480001000200FEFFFFFF01000200010001003E
:106758000200020001000100020002000000000027
:106768000100010002000200FEFFFFFFFDFFFFFF26
:10677800FCFFFEFFFDFF0000F7FFFAFFFAFFFDFF39
:10678800F6FFF9FFFAFFFDFFF8FFF9FFFDFFFDFF38
:106798000000FFFF0100FFFF020000000100FEFFF4
:1067A80003000000020000000500040001000200D0
:1067B80000000300FAFFFEFFFBFF0100FAFF0000E4
:1067C800F7FFFEFFFCFF0200F9FFFEFFF8FFFDFFE9
:1067D800FFFF020001000400060008000200040098
:1067E80005000800FEFF0200FDFF030002000A008A
:1067F800FFFF0900FDFF0800F9FF0500F7FF04008F
:10680800F5FF0100FBFF0600F4FFFEFFFDFF060099
:10681800FAFF0100FCFF0100FDFF0100FCFF000082
:10682800F7FFFBFFFAFFFFFFFDFF0200FBFF02007F
:10683800FEFF0600FEFF0700F9FF0400F5FF000059
:1068480000000B00F4FF0000FCFF0800FDFF08003B
:10685800FDFF0800F5FF0100FDFF0800F6FF00003E
:10686800FAFF040004000E0000000A00FBFF040009
:10687800FBFF040000000800F7FFFFFFFEFF060013
:10688800F5FFFEFFFAFF0400F5FF01000500120006
:10689800FDFF0B0006001500F7FF0600F9FF0800D2
:1068A80002001000F6FF02000C001400F9FFFFFFC1
:1068B8000E0010000B000A000200FEFF0A00030091
:1068C8000300FBFF0400FBFF0600FDFF0A000100B8
:1068D8000B000300FBFFF4FF12000B000600FFFF94
:1068E800090001000F0006000A0000000F00030065
:1068F8000300F6FF0D0000000500F9FF0F0005007A
:10690800FBFFF4FF06000200FEFFFEFFF9FFFCFF9D
:106918000100080004000D0009001300090014001C
:106928000A0014000000080004000900060009001D
:106938000F000F00FAFFF8FF080004000A00060025
:10694800FBFFF6FF050000000400FEFFFDFFF6FF59
:106958000600FEFF0A000100140009000500F7FF09
:106968000A00F9FF160003001B00080020000D00B4
:1069780013000200110002000800FDFF0C000500D2
:10698800F7FFF4FF0B000C000300080005000C00E3
:106998001600200013001E0003000F0003000F0064
:1069A8000C001A00FEFF0D000E001F00FEFF120073
:1069B800F6FF0D00FDFF1800F0FF0E00F6FF1600B1
:1069C80008002900FFFF1F00FBFF1800F6FF0F005B
:1069D800FEFF1200FAFF09000700110005000A0077
:1069E80008000A00110012000400050007000B004F
:1069F8001B002300170021000600140004001400E7
:106A0800ECFFFDFFFBFF0A0003000F000B00130063
:106A180009000C00150013001C00160021001900C5
:106A280009000100100009000E000D0013001800F5
:106A38000A001700F2FF070003002000F1FF14000E
:106A4800F8FF2000EFFF19000C003500F5FF1B00D0
:106A58001A003B000900240007001C000F001F005B
:106A6800F6FF00000B001000F6FFF8FF0C000D0009
:106A7800F3FFF3FFF1FFF1FFECFFECFFF3FFF4FF8F
:106A8800060007000A000B00F9FFFCFF0C000F00CE
:106A9800FAFFFEFF08000D00FFFF0500F8FF0000E9
:106AA800FEFF070004000E00FAFF0500D8FFE3FF11
:106AB8000C001700E6FFF0FF090012001100190092
:106AC8001200190007000D0005000A00F7FFFDFF7E
:106AD800F4FFFAFF24002A0016001C0018001E000C
:106AE80016001C000F001300100011001B001700F7
:106AF80012000900110002001000FAFF2E00130016
:106B080025000600390017000D00EBFF1D00FDFFF2
:106B180027000C001000FBFF330025000B000400C9
:106B28001B001B0005000B00F8FF01000600100009
:106B380001000A00FBFF0000FDFFFEFFE9FFE3FF85
:106B4800F6FFEAFF0100EFFF1300FBFF29000D002D
:106B580022000300290007002000FDFF0D00E9FFC7
:106B68001C00F7FF260000002500FDFF2F00030092
:106B78002800F8FF1900E5FF0700CFFF1A00DFFF24
:106B88000A00CEFF0D00D1FFFAFFC1FF2100EEFF82
:106B98000D00E1FFE5FFC2FFE9FFD1FFDDFFD0FFF8
:106BA800EFFFEDFFD9FFE3FFE3FFF6FFDCFFF7FFA1
:106BB800CBFFEDFFD8FFFFFFEAFF1500DDFF0D005B
:106BC80000003300F7FF2F00EFFF2A00F6FF370021
:106BD800E1FF2700CFFF1900DBFF2900CDFF1E00D2
:106BE800CDFF2000D0FF2000BDFF0B00B9FF000043
:106BF8009FFFDEFFDEFF1400D2FFFDFFCAFFE9FFA3
:106C0800C9FFDFFFD2FFDEFFD2FFD6FFC2FFC1FF01
:106C1800CFFFC9FFE2FFDAFFEEFFE4FFECFFE1FF81
:106C2800FEFFF1FFE8FFDAFFE1FFD0FFF6FFE0FF2C
:106C3800FBFFE1FF0B00ECFF230000001300ECFF5B
:106C48001600EEFFF6FFCFFFEDFFC9FFEEFFCFFF07
:106C5800E5FFCEFFE9FFDAFFE6FFE0FFC2FFC3FF73
:106C6800E3FFEBFFD0FFDCFFE0FFECFFF9FF0300E1
:106C7800D2FFD7FF0A000700D1FFC6FFF0FFDCFFF5
:106C88000100E5FF0F00EDFF1A00F3FF0400DAFF33
:106C9800FCFFD3FF0200DAFF0B00E6FF0200E1FF72
:106CA8000200E5FF0E00F4FF0600EEFF28001100C9
:106CB8003D002600FDFFE5FF1300FAFFFEFFE3FF9E
:106CC8001600FBFF0E00F2FF3F0023000B00EFFF52
:106CD8001D00030020000800D8FFC1FF0900F4FFD1
:106CE800FDFFE9FF0700F4FFE7FFD4FF0C00F8FF02
:106CF800F6FFE2FF0300EEFF0300EEFFF7FFE1FF00
:106D08001500FEFF1A000100F7FFDCFFF8FFDAFFAD
:106D1800D5FFB4FFF0FFCAFFEFFFC5FFE1FFB2FFE9
:106D2800F0FFBDFFCBFF96FF0500D1FFD1FFA0FF0D
:106D38001100E6FFFDFFDBFF0400EEFF0800000086
:106D4800F0FFF4FFEBFFFAFFE2FFFBFFE8FF0600AE
:106D5800BCFFDBFFE8FF0400DEFFF3FFEFFFFAFFF5
:106D6800DAFFDAFFE5FFD9FF0400EFFF1100F5FFB6
:106D78000600E8FF0A00EDFF0F00F6FF150003000C
:106D8800EFFFE5FFD4FFD3FFE2FFE6FFDCFFE4FF00
:106D98000C00120014001600F4FFEFFF0200F4FFCD
:106DA800180000000600E5FF1900F1FF1000E4FFDD
:106DB8001300E9FF0500DEFFFCFFDDFFF6FFE2FF41
:106DC8000800FEFF19001A00F0FFFBFFEDFF0000AE
:106DD800F4FF0C00CFFFEAFFF1FF0E00EBFF090004
:106DE800E3FF0200FAFF1B00D0FFF4FFDCFF050001
:106DF800FBFF29000E004100E0FF180001003D00E4
:106E0800E1FF1D00D5FF0F00DFFF1300D9FF0400CD
:106E1800E1FF0100EDFF010018002000150012003D
:106E28002A001E00FBFFE9FF1000FAFF29001100ED
:106E38001E0006001200FAFF0000E8FF1500FBFF25
:106E48000300E7FFF2FFD2FF29000400F9FFD0FF9B
:106E5800FAFFCDFF1B00ECFF1100E3FFFEFFD5FF9B
:106E68000300E3FF160000000F0006001B001F00D0
:106E78000F001E000F002800DBFFF8FF0B002A00A0
:106E8800E1FFFCFFF2FF070003000F000C000C00FD
:106E98000800FEFFF2FFDEFF0D00F2FF0B00EBFF24
:106EA80030000D00FEFFD9FF380012002300FCFF60
:106EB8000800DFFF2300F5FF2600F1FF2900EBFFA4
:106EC8001600CEFF2300CFFF2F00D2FF1100ACFF2A
:106ED8006A0002004000D9FF4600E3FF5400FAFFB1
:106EE8001D00CFFF51001100F2FFC0FF2200FCFF80
:106EF8001300F8FF3600210031001F0019000700B9
:106F08001100FBFF1300F8FF1500F3FF0D00E5FF6C
:106F18002D00FFFF1000DEFF1500E1FF2D00F9FF37
:106F2800580025001400E4FF330008001B00F5FF9B
:106F38000400E5FF0C00F2FF2E001A000B00FDFF15
:106F48000B0001002D002800F1FFEFFF05000500F0
:106F58000F000E00240020001E00170028001A0051
:106F68001F000B000000E5FFF8FFD7FF0C00E9FF4A
:106F7800F8FFD3FF1000EFFFFEFFE4FFF1FFE3FF90
:106F88000000FFFFD9FFE8FFD8FFF8FFE9FF18006E
:106F9800DAFF1600F3FF3600EFFF3600C0FF0500EA
:106FA800DCFF1D00F2FF2B00030033002C00530010
:106FB8004100620027004500F8FF1700FDFF21008F
:106FC80015004200DCFF1300F5FF3700DEFF2B0041
:106FD800F2FF4600F1FF4A0003005D00EDFF4400A8
:106FE800FAFF4B00EDFF3600F1FF32000D004500BF
:106FF800F5FF27003A006600CAFFF2FFF9FF1F00FD
:10700800D4FFF6FFE4FF0300BCFFD5FFC7FFD6FFA0
:10701800D0FFD4FFE0FFD6FF0200E7FF6300370090
:107028000B01CE004E0102010A02B1013702D40160
:10703800B7024C02F9028702B00339032604A703FA
:10704800A5041D04ED0459042D058A045705A2045E
:107058008D05C704C705F104320652053C065805DC
:107068002A064D0546067A058705D904DC04570427
:1070780090033D03E602CB028E01AE018700E100DA
:107088000EFF9DFFE8FDA3FEA1FC7FFDF0FBE6FCE3
:1070980070FB74FCE0FAE9FBB8FABFFB2FFA33FB8C
:1070A80026FA25FB9AF998FA1CFA1DFB10FA19FB27
:1070B8003BFA52FBF9F922FBC1F900FB79F9CDFA49
:1070C8002CF995FA6EF8E8F9E9F770F9E8F676F828
:1070D80099F52AF7C3F453F60FF49BF55EF4E4F53B
:1070E80078F4FAF5E5F466F608F58CF662F5EDF64F
:1070F80057F5EFF665F50EF7C5F482F671F445F627
:10710800A2F38EF5FCF2FEF4F0F107F432F158F335
:107118005EF18FF3AAF1E0F330F264F451F27DF4FA
:10712800B8F2D7F46AF279F488F284F414F2FEF330
:1071380015F2EFF39DF16BF39AF162F31EF1E7F2AA
:10714800E6F0B7F220F100F314F109F31EF12CF385
:10715800BCF0E5F2B8F0FDF27FF0DDF240F0B3F2FA
:107168006EEFF2F115EFA4F1A7EE3CF1EDED85F02D
:1071780037EDD0EFBEEC58EF72EC0EEF60EC01EF9C
:107188002CECD4EE87EC39EF22ECDEEE8FEC54EFEA
:107198008FEC5AEFA7EC73EF40ED04F081ED37F078
:1071A80095ED34F04AEDCDEFF9ED5DF014EE58F0C1
:1071B80006EF2DF114EF24F163F064F2C7F0C4F286
:1071C8004CF14DF384F192F340F160F301F134F3A3
:1071D80052F096F27EF0CFF20CF060F21EF06CF2F4
:1071E8008AEFCAF101F029F245F050F223F10FF3CA
:1071F80044F113F392F148F394F137F395F12EF338
:10720800C7F15EF354F1EEF205F1A8F261F00DF268
:10721800D5F08AF268F023F226F0E2F194F04DF20C
:107228001AF1CDF2D2F07EF2F9F09EF281F122F35A
:1072380047F1E8F297F03BF226F0D1F1EAF09DF23F
:10724800ABF062F27CF031F24AF2F3F3DFF36FF560
:10725800E0F549F7B1F7E5F857F948FAEEF993FA86
:1072680088FBDAFBD1FDCEFD9DFF49FF4E02AE0142
:107278000A0426035A0638054507EC05DF085207B5
:10728800AE09EE07730C7D0A7D0F4A0D5B11E70E00
:10729800AF12F40FA810A40D3311E90D8713FF0FD7
:1072A800A916F212C016ED12E6150E12E1151D12FE
:1072B800F3145A1170141511441333106212A10FEC
:1072C80095122110E413B0119A139611C612DE100C
:1072D8008712A5103511460F27121D10D612A810B7
:1072E8000713B410E2147012181592123C14B0115E
:1072F8005F13DC105413E8102211D60EEC0FC60DE4
:10730800E00FDF0DA50CC40A370C6C0A7A0BBA091A
:10731800570B97090A0C400AB90AE108BF0BD909AB
:107328006D0A7D088E0A9F08650984078B07C605C4
:10733800D20536043702D10046021D0120FF37FE70
:1073480008FE5FFD3DFDCCFCCCFA8DFA71FA57FAC8
:1073580074F976F92DFA41FA98FAB8FAB3FAD9FA23
:10736800E1F90CFA0BF83CF852F78BF7CBF50EF66F
:1073780033F582F52BF488F49FF209F345F2B8F25D
:1073880038F1B1F1F5F06FF1C2F036F1C6F032F133
:107398005AF0B9F020F071F04CF18FF116F14CF180
:1073A80082F0ADF006F127F15AF072F0EBF0FCF044
:1073B800C8F0D1F087F185F1D4F1C4F1D6F1B4F178
:1073C80040F305F34BF3F5F26CF5F6F424F68AF581
:1073D80005F947F8DBFAF7F9F2FBE8FA46FE16FD7D
:1073E80062FF0EFE8E011400A102030132046C023A
:1073F800F7050A04FF06E80480093F07FE0B920917
:10740800CD0D370B0410450DB012CB0FC015B912B6
:107418009B1777143A1AFE162C1DDC19D81E7A1BF6
:10742800BC20521DFC22891F6323E91F3625B82181
:1074380092251222F3267423E6246A211C23A91F0D
:107448001423AF1FD21F821CE21FAE1C6F1D5E1AD1
:10745800A51EBD1B401D851A031D771AFC1C9F1A0B
:10746800221BF218BE1BB819FD1B1B1A151E501C37
:10747800F71C4A1B151C791A521BC2198319FC17D1
:107488002218A216D7165E15B3164315C81563142D
:10749800A4134E12B4126F111110E30EE20FCC0EAA
:1074A8001310190FC811EB10441185106C10CB0F75
:1074B8003F10BD0FFA0E950E600D180D8A0C5E0C6C
:1074C800D40DC30D310C3A0C1B0B3E0B340770075F
:1074D8009005E5052C019901AD003301D3FE73FF3A
:1074E800D3FC8CFD22FAF4FA42F72DF866F768F817
:1074F800DBF3F3F473F59DF654F48DF577F5B9F6EF
:10750800DAF120F311F055F1E1EE1CF052EC81EDC7
:1075180076EC94ED79EA85EB57EA50EBF1E9DBEA92
:1075280003EBE0EBCEECA3ED56EC2BED66EC40ED77
:107538006FED54EE66EE5BEFFCEF04F173F091F142
:1075480084F1B8F253F09CF1C5F021F2C2F030F2A8
:10755800D5F152F3E6F170F303F499F55FF402F60E
:10756800DDF28CF4A1F15EF3B9F184F3A1F37CF5BB
:10757800DDF2C8F43BF436F6E3F3EDF586F69EF853
:107588001DF540F77AF4A7F618F34CF528F362F5E1
:1075980016F657F88AF6D1F8D4F323F6EDF045F34A
:1075A8004BF0ADF280F1EDF34EF1C8F34BF0D1F2B0
:1075B80040F1D0F352EEEBF035EFD4F119EDBEEF18
:1075C800C6EE6EF164F00FF300F3AEF515F3C8F5EF
:1075D800FFEFB9F240EF04F21FF0EFF2C3F2A3F5A8
:1075E8009BF18BF477F17AF4DDEFF1F28EEEB1F1E5
:1075F80015ED45F0BDECF7EF8EEACFEDB0EBF5EE0B
:107608001EED65F082EFCAF286ECD0EF81EBCDEE8D
:1076180027ED76F02CED7FF009F15EF4A7EFFEF28E
:10762800C0F116F567F2B7F50FF354F67BF2B0F533
:1076380091F1B1F4A0F3A7F69BF387F64DF41DF78B
:10764800A4F25AF5F1EF90F2D9EE67F131EDB1EF0E
:107658008DED04F037EAA7EC6DEBD6EDFDEC5CEFB1
:107668005EEDAFEF7CEBB8ED3DE75BE9FFE6F7E8F1
:1076780061E52CE71BE7B4E82DE58FE6E1E50DE7CA
:10768800E3E5DCE6DDE8A7E9D4E775E858E6D5E602
:1076980017E775E73BE97EE920EE47EE55EF5DEF2A
:1076A800B3F197F136F1EFF075F4FCF317F663F5E3
:1076B80053F860F722F8ECF684FC0CFB73FFBDFD71
:1076C800DEFEF2FC690152FFBA0184FFB7046E02C4
:1076D8008C063D0467061A041008CC0595075F055B
:1076E800500A28088A0B6F097E0A6C08440E370C6A
:1076F8003B0B2F09260C180AB409A1076908530681
:1077080074085A0687096D07710D5A0B650D530BDE
:10771800EF0FE50DBC10BB0EAD12B510D013E01184
:10772800E213F81161157A133816521484179C1550
:10773800CB18E01677178A151E1931170C1B21195B
:10774800571C721A481C6C1A6E1D9F1BED1D301CAD
:10775800B81F0F1E671ED41CBC1A40196017FC15F1
:10776800F417A816711B3C1AC217A4162919241855
:10777800151829179317C016A316EB154115A3144E
:10778800F7147514F0148914E8149A140A15D4140B
:1077980041111E11360C240C3A0B340B730A750A6E
:1077A8008E0A950A7E068706FE030804D8FFE0FFC6
:1077B800AFFEB6FEE5FDE9FDE9FCECFCFDFCFDFCD9
:1077C80087FE83FE25FE1CFE0DFCFDFB80FB65FB92
:1077D80076F94DF958F91CF98BFA3AFA75F90BF95B
:1077E800EEF768F7CAF826F85FF89CF72AF846F724
:1077F800D7F7D4F64CFA29F9A5F962F8ADFA4BF99E
:1078080086FA04F9E2F940F872F9B1F7F9FA18F9C9
:107818003EFF3BFDCEFFA9FD1102CBFF1F03B800C1
:10782800A604200212066D031A0759048C09B20631
:10783800B50BC3083B0C3509900D780A770D500A33
:107848005B12260FF313B31076152B1260180D1563
:10785800AF195316791B17180D1BA617751A0A1797
:107868004E18E114E3197616EE198216C01B581843
:107878004D19EA155A18FF140E19BE150617C2132A
:107888009B17661461173D14441734140C17101411
:1078980002161E13BB16F1135314A411B0131F11B3
:1078A800F5158213DD148B12A916771440143112C2
:1078B800DE11F10F4010770EC70E220D970C160B34
:1078C800DA0B7E0A8E0C580B920C810BAD0BC10A99
:1078D8003C0C760B480BA80AE30B690B330EDE0D44
:1078E8000C0EDC0D480F3C0F4D0B650B3D0C780C56
:1078F800750AD10AB70833091909B4095F081909C3
:107908009B077208C504B905DC00EB012DFD56FE86
:1079180019FB5CFCA7FA03FC04FA77FBB5F83EFAFE
:1079280006FBA4FC7EF730F932F5F6F6B1F385F5DF
:1079380080F064F23DEF2EF1E2EEDFF026ED2EEF5F
:1079480014ED25EF13EE2CF09AEEBAF0AAECD1EE76
:10795800ECEA17EDCCEBFCEDC3EBF7ED3EEE75F082
:10796800F5EE2EF108EE44F024EB61ED45E983EBEA
:107978004EEA8DECB5EBF4EDEFEA2EED04ED42EFB7
:1079880069ECA7EE09ED45EFBDEEF9F05EEE99F072
:1079980043ED7EEF57EC92EEB2EEEEF037ED74EF7A
:1079A80008ED46EFBCEBFCED08EC4BEEB5EDFBEF5C
:1079B800A0EEEAF0F9EE47F1EEED41F09FECF6EEBD
:1079C800A5EC01EF7BEADCEC45EBACED61ECCFEE2E
:1079D8008FED03F066EDE0EF03EC84EE81ED09F046
:1079E800CAEC59EFF0EF86F278EF15F2CEF072F3A9
:1079F8001EEFC9F14EF0FFF2FDEFB5F217F0D5F228
:107A0800AFF373F6CEF197F419F5E7F745F518F8E3
:107A180022F5FAF745F420F7FFF2DEF56CF34DF6A0
:107A2800FEF4E2F71EF803FB40F927FCD5F8BCFB8F
:107A380050F837FBB7F89DFB0CFBF0FD36FC17FF41
:107A480097FE750175FD4E00D7FDAB0011FEDF00F6
:107A580067FD2E00CDFF8C025DFF14021502C104E4
:107A6800A9014B04AF024605F3017D04B0FD2D00CA
:107A7800F6FA64FD68F9C7FBE2F831FB69F8A7FA82
:107A8800A1F7CCF91FF737F931F535F799F588F7EC
:107A9800E5F3BEF586F048F212F0BDF11CEFAEF04A
:107AA80008F181F228EF87F07EEEC2EFF5ED1FEFC7
:107AB80059EF67F086EF77F0CDF0A1F130F2E7F2F9
:107AC800C9F362F43AF4B5F408F365F3A3F4E1F406
:107AD8008FF5AFF50BF90DF9F0F7D3F722FAE8F9BE
:107AE800E2FA89FA2FFBB9FAFBFD69FD060058FF97
:107AF80006013C005401700024012600F600E0FF56
:107B0800EE01C10070032E023D05E7035A04F1029D
:107B1800A4052B04A8051F04A6040F03B40311022F
:107B28009901EDFF080154FF9701DEFF470189FF26
:107B3800B302F400B102F20053049602C5050C0426
:107B48005706A50439088F06880AE808310B9D09ED
:107B5800270BA109930C1C0B720C0C0BB10D5D0CBF
:107B6800E90DA90C890E5E0D500F3B0EAA13AC123D
:107B78002A154314271558147013BA120A126C11D7
:107B88004F12CB11C51159117B1228129C1160118B
:107B9800BC1297127A136C134C135313CB12E612C0
:107BA800C412F2124B118A1107135613B411111291
:107BB8005D10C610FC0E6F0F120D8D0D0C0D8C0D87
:107BC800850B090C500AD50A2D08B1084A05CA05C3
:107BD800E600610161FFD3FF4EFDB4FDE9FD42FE01
:107BE800B6FE00FF62FF9AFFBDFEE0FE78FB86FB53
:107BF8004AFA40FAE9F9C4F900FABFF9ACF94DF9C3
:107C08006BF8EDF7F6F757F7BFF6FEF53AF656F5C7
:107C1800C9F5C2F4FFF4D4F3E6F596F4E4F56EF48E
:107C28000BF670F4A5F4E4F241F55AF35BF551F361
:107C38004CF71DF556F803F660F9EBF69EFA07F8CF
:107C4800F5FA3DF802FC2BF916FD22FA910081FDA8
:107C58002402FAFE1204D0003E05E501A9063C0301
:107C6800170998050E0B7F07140C77084F0FA70B01
:107C7800AE11FD0D9515DE11E5162A13CA170D1460
:107C8800E21625139614DD100C17571312166512F9
:107C9800CD1729141F1787137E17F4138D18121583
:107CA800711607136F1518120A15C8112716FC123A
:107CB8002617121401160613F6131611281363104B
:107CC800A014F6115A16CD131A17AA145B16091424
:107CD8000016CD136E155913B813C311A312CD1086
:107CE8007710BF0E4B12B31093111A108210270F82
:107CF8009D0F600EFE0DDE0CC30EC10DBB0FD60E20
:107D08008210B90FDA102D10DD114B116411EC102F
:107D18004A0FEB0E4E0E070E9D0D6F0DA70D900D21
:107D2800BD0EBC0E410C570C940ABF0A30077007F1
:107D38006006B4067D04E40400037B03FD028B03A4
:107D4800AA024903D003810461032404940368044C
:107D580058013C02B100A70139FE3FFF17FD2DFE77
:107D6800A1FAC7FBB2FAE8FB6CFCB2FD8DFBE3FCA1
:107D780005FC6AFD5DF9D2FA15F898F990F823FA2E
:107D880047F9E9FA96F848FA33F7F4F845F714F999
:107D980009F6E6F763F44EF661F35AF550F358F531
:107DA800F0F304F647F468F6CFF4FCF643F27BF4FC
:107DB800AAF2EDF431F37FF581F3D8F571F2D1F43D
:107DC80013F17BF3E2F152F435F0AAF280EFFAF105
:107DD80060EEDFF0D5ED57F031EEB5F04BEED0F0B8
:107DE80010EC95EE08EB8CEDABEA2EED28EBA8ED48
:107DF80080EAFCEC4DEAC4ECB8E92AECCDE838EBB3
:107E080003E967EB54E8AFEA76E8C9EA82E8CBEA27
:107E180081E9C1EB5CE891EAA6E7D1E9DAE7FAE99A
:107E2800C0E9D5EB1EEB28ED9BED99EFE1EDD5EF21
:107E380046ED2FEF3DED1CEF8AED5EEF08EED2EF39
:107E48001FEDE0EE5DEF15F15DF00DF276F21DF439
:107E58007AF319F5ACF245F4B6F249F415F5A3F640
:107E6800C0F549F73FF6C4F7A4F725F9CCF949FB63
:107E7800CBFB46FDADFA25FC37FBADFC5FFBD3FC25
:107E8800FEFC70FE950005023700A60113FE7FFF79
:107E980007FC71FDCBFA33FC16FA7BFBCFF730F900
:107EA800F1F74FF99BF7F3F8F2F644F8BFF40AF646
:107EB80010F253F349EF83F047EF77F000EF24F027
:107EC80079ED90EE3BED44EE4FEB48ECEBEAD3EB6B
:107ED80097E96DEAF0E9B1EA36E9E2E9B3EA48EB95
:107EE800D6EB52EC5AEBBDEBC1EA09EB30EC5CEC9B
:107EF80021EF31EF21EF13EF14F1E8F07DF332F3C6
:107F080013F4A8F3E8F55DF575F8CBF79DF9D3F808
:107F180054FC6AFBA8FD9EFC94006CFF570010FF00
:107F28006F000CFFBB013B0008026D00E604320342
:107F38005F0693044F066C04D105DA0315060B049B
:107F4800A3048A0253032B01BE028A00E702AA0097
:107F5800840240001203C900DE0393013E04F401C9
:107F68008F0547034609040757091C072108F1052F
:107F7800170AF307420B2E09470D440BB80EC70C1E
:107F88004F10730E4810830EEE10420F30129E10E1
:107F98001C11A50F1E11C30F1E13E0115E133E1214
:107FA800F113EF123D135A12F5123112D5122F1296
:107FB8006A12E2112F12C5111D11D010F011BF1154
:107FC8006C125612FD120113B312CF1262139513DD
:107FD800F11238131C127612D3113F127612F012D6
:107FE8006711EE114A12DC124812E1123F0FDE0F40
:107FF800F00D920E7E0B200C5E0AFF0AB0074C08AB
:108008004308D9085A08E608C60647072408970807
:108018004507A9070D065E06E9062707B505DC052D
:108028005E046E044F0246023301100183014401CD
:108038007C0121014802CE01D6013E010D01570005
:108048006D0098FFE400F0FF5BFE47FDE7FEB4FD1E
:108058007CFE2AFD8BFE1BFDA50018FFC8011F0032
:10806800CE020801120133FFE802EF00720361013A
:108078005D023700BA027F004D04FF017F0520032F
:108088001A08AC053C0AC007950A0E08990B08099E
:10809800B40D1B0BFC0E5D0C3610940DC811230F8C
:1080A80024127E0F7113CD107F13DE10C11325111A
:1080B8005214BC11E31455123016AB13F215761393
:1080C800D91368115314EE111514BE110415B91201
:1080D80099155D1397146A12B6139811311223106B
:1080E8000F131011B911CA0FEE110E103A136911BE
:1080F800E31222116F12BD10AE110A104110AC0E1E
:10810800920E0A0D2D0DB30B8B0C1E0B8B0B2A0A2E
:10811800BF0A6A09A0095608A4096508C609920891
:10812800020BD709700C4F0B140BFD09D70AC909AC
:108138001D091808D308D707D407E106E208F8078D
:10814800510971082C08550756078906E1041F04D0
:1081580005024E014E00A2FF9BFDFDFC59FBC7FA2C
:1081680025FDA1FC0FFB9BFAB6FA51FA8FFA3BFAF0
:108178005DFB1BFB41FA11FA94F878F852F74BF7BC
:10818800C1F4D0F41AF43FF4CAF307F468F4BDF468
:108198001CF48AF44BF5D3F580F523F60DF5CBF5F1
:1081A80088F361F4ECF3E2F4F9F40AF62BF659F7E4
:1081B80094F5DFF6FEF465F6C0F445F659F4FAF5E1
:1081C800D5F492F660F239F40FF204F44AF35AF552
:1081D8006BF396F586F4CBF631F58EF755F2CBF4C2
:1081E800DAF167F40FF1B1F34AF001F338F002F372
:1081F8004CEF29F2D7EFC4F230F02BF3FEEE08F281
:10820800AAEEC0F1A7EDC8F07FECA9EFAEEBE0EE67
:1082180016EB4FEEBFEBFEEEFFEA42EE2BEC71EFF2
:10822800B3EBFCEE8EEAD8ED04EA4FED81EACBED34
:1082380061E9ABECEDE835EC96E6DDE975E5BAE821
:1082480034E777EA22E863EB7EE9BDECE4E920ED68
:10825800ABEAE5EDFBE933ED56EB8CEEC4E9F8EC5F
:10826800FBE92CEDE1EA10EEE1EB0DEFECEB17EF9B
:1082780021ED49F069EF8FF2EDF010F451F271F54C
:108288004FF26CF5CEF3E7F6ECF401F8AAF8BAFB76
:1082980076F981FC77FB7CFEECFBEBFEEBFDE20064
:1082A800AFFF9F02C3FFAA020402E30498026E050F
:1082B8009A0365063303F4054401F90392FE3B0172
:1082C80024FEC00089FE18010FFE900082FDF4FF15
:1082D800E4FB47FE8EF9E0FB6DF9AEFBB9F8E7FA6F
:1082E800A2F8BCFAA9F6AFF83CF52BF778F34FF5EE
:1082F8004CF209F445F2E6F313F196F253F2B7F3B0
:10830800C7F109F310F02EF15FF057F16BF13BF272
:1083180069F110F292F30DF439F387F3BEF4DFF448
:108328004FF640F688F64BF6E3F775F7BCF91FF9F8
:10833800CFFB03FB7EFE84FDF3FFCCFE8CFF3AFEF1
:10834800BBFF40FE360093FEBC02F40087039D018C
:10835800EB05E303660642049B085E063608E30560
:1083680095072F0583070D054908C6052A099C06A8
:10837800B3061E048107E7042F069103F20753058D
:10838800C708290608086C05DA0742056B08D805EE
:1083980008097B06CE0A4908910A16087E090D07C6
:1083A800A50B3F09800D280B1D0FD30CE20FA90D5B
:1083B800AB0E840C5A0E460C980F9A0D4710610E9E
:1083C8002A115E0F2D107C0E2211900FA30F2F0E75
:1083D800330FE10D0F0DE10BCE0AC409A80CC30B36
:1083E800840DC60C590DC10CE80C760C580C0D0CFC
:1083F800B10A8B0A0C090A09CB07EB07A807E9079A
:108408005F08BE08DE09580A2808BA08BC076408CD
:10841800AB0465057C0343041602E8023EFF160020
:108428002AFE05FF00FDDBFDC4FC9BFD37FC07FDB4
:10843800DFFCA5FDEEFCA6FD44FEECFEFBFD90FE78
:108448009AFD1AFEC5FB2FFC24FC75FC70FAA7FAEE
:1084580098FBB4FBBCFDBBFD43FD24FD6AFE2EFE6C
:1084680036FDDAFC35FCBAFB92FBF8FA3CFC82FBE1
:1084780081FCA6FB59FC5FFB91FB78FA84FC4DFB61
:1084880023FCCDFAD5FD63FC9BFE0DFDB1FF08FE74
:1084980091FFCFFD30FF56FDFE000FFF09020500DA
:1084A8005E0448024A052403F106BE044A080A0687
:1084B800F50AAB08500CFF09C60C6F0AED0F910DB9
:1084C8002C12CF0FD511760FA8134A116D12101068
:1084D800611307111414BD111114BD11AB145C12F2
:1084E8008B144012F415AD130F15CD12BF1581135F
:1084F8004D151413A3156F130513D710AF11860F5D
:108508002710050E5310380E3911260FD010C80E3B
:108518007010730EF20F020E0F112D0F7B11AA0FA0
:10852800AE11F00FB5110B103512A110DB0F5F0E55
:10853800710F0E0EDF0D970CF40CC80BD40DC40C84
:10854800320F3E0E470E6E0DFF0F400F9B10F60FB9
:108558004E0EBF0D720EF80D340ECC0D2C0ED40D30
:10856800D90C8E0C4B0D090DA90C6D0C040BCC0A03
:108578008C0955093A0901091107D406550613064D
:10858800C6047E046B031C03AB0156011901BF002E
:10859800A20245024D01EE00FA009D0098013F013C
:1085A800BA0068003DFFF7FED4FD9DFDEAFAC7FA60
:1085B80086FA7AFA71FA80FAF3FB20FC9CFAEAFA56
:1085C80058FBC9FB96FA2CFBC8F983FAF7F9D9FAD4
:1085D800B3F8BAF98AF9B7FA2BFA7BFBD5FB47FD52
:1085E800FCF98DFB62F80FFA9CF661F86EF649F813
:1085F800F3F6E0F89FF99AFBAEF9B5FBDEF9EDFB6F
:1086080046F75BF951F66AF8DAF6F5F802F51EF75F
:10861800A7F7C3F97EF69AF890F7ADF957F776F908
:1086280046F568F729F44FF64EF479F6AFF4E2F61A
:108638001FF35CF5ADF1F4F370F1C4F3B4EF16F287
:10864800D2EF44F294F015F382EF13F213EFB3F183
:1086580094EF43F21DEEDBF001EBCCED35EB0AEEC7
:10866800B4EA93ED22EA07ED90E97AECEDE9D9EC6A
:10867800F1E8DCEBCEE7B6EA71E754EAECE9C7ECDF
:1086880052E924ECFAE8C0EB5DE917EC88E734EA34
:1086980011E8ADEA89E716EAE5E762EAC6E832EBEF
:1086A800E1E93DECABEAF6ECF0EC2BEF46ED70EFD0
:1086B80091EEACF060EE6CF07CF078F2E8F1D5F376
:1086C80053F232F442F313F593F356F5F5F4ABF69F
:1086D80046F6EFF7F6F892FAE1F771F9AAF82FFAE9
:1086E80062F7DCF848F8B8F90DF774F8A3F502F763
:1086F800EDF544F779F5C9F681F6CBF7B9F6FEF74B
:108708000EF64FF71BF358F42BF264F3EFEF25F155
:108718002DEF60F02EEF5CF043EF6AF038EF58F081
:10872800A0EEB6EFBBEDC5EEE9EBE3ECABEB92ECFC
:108738005BED2CEEDBEC92ED66ED00EE40EFB8EF72
:1087480039F08CF0DDF007F1CCF1CAF182F352F385
